


ARM Macro Assembler    Page 1 


    1 00000000                 EXPORT           port_int_disable
    2 00000000                 EXPORT           port_int_enable
    3 00000000         
    4 00000000                 EXPORT           port_cpsr_save
    5 00000000                 EXPORT           port_cpsr_restore
    6 00000000         
    7 00000000                 EXPORT           port_sched_start
    8 00000000                 EXPORT           port_context_switch
    9 00000000                 EXPORT           port_irq_context_switch
   10 00000000         
   11 00000000                 EXPORT           port_clz
   12 00000000         
   13 00000000                 EXPORT           PendSV_Handler
   14 00000000         
   15 00000000                 IMPORT           k_curr_task
   16 00000000                 IMPORT           k_next_task
   17 00000000         
   18 00000000         
   19 00000000 E000ED04 
                       NVIC_INT_CTRL
                               EQU              0xE000ED04
   20 00000000 E000ED22 
                       NVIC_SYSPRI14
                               EQU              0xE000ED22
   21 00000000 000000FF 
                       NVIC_PENDSV_PRI
                               EQU              0xFF
   22 00000000 10000000 
                       NVIC_PENDSVSET
                               EQU              0x10000000
   23 00000000         
   24 00000000         
   25 00000000                 AREA             |.text|, CODE, READONLY, ALIGN=
2
   26 00000000                 THUMB
   27 00000000                 REQUIRE8
   28 00000000                 PRESERVE8
   29 00000000         
   30 00000000         
   31 00000000                 GLOBAL           port_int_disable
   32 00000000         port_int_disable
   33 00000000 B672            CPSID            I
   34 00000002 4770            BX               LR
   35 00000004         
   36 00000004         
   37 00000004                 GLOBAL           port_int_enable
   38 00000004         port_int_enable
   39 00000004 B662            CPSIE            I
   40 00000006 4770            BX               LR
   41 00000008         
   42 00000008         
   43 00000008                 GLOBAL           port_cpsr_save
   44 00000008         port_cpsr_save
   45 00000008 F3EF 8010       MRS              R0, PRIMASK
   46 0000000C B672            CPSID            I
   47 0000000E 4770            BX               LR
   48 00000010         
   49 00000010         
   50 00000010                 GLOBAL           port_cpsr_restore



ARM Macro Assembler    Page 2 


   51 00000010         port_cpsr_restore
   52 00000010 F380 8810       MSR              PRIMASK, R0
   53 00000014 4770            BX               LR
   54 00000016         
   55 00000016         
   56 00000016                 GLOBAL           port_clz
   57 00000016         port_clz
   58 00000016 FAB0 F080       CLZ              R0, R0
   59 0000001A 4770            BX               LR
   60 0000001C         
   61 0000001C         
   62 0000001C                 GLOBAL           port_sched_start
   63 0000001C         port_sched_start
   64 0000001C 4817            LDR              R0, =NVIC_SYSPRI14
   65 0000001E F04F 01FF       LDR              R1, =NVIC_PENDSV_PRI
   66 00000022 7001            STRB             R1, [R0]
   67 00000024         
   68 00000024 2000            MOVS             R0, #0
   69 00000026 F380 8809       MSR              PSP, R0
   70 0000002A         
   71 0000002A 4815            LDR              R0, =NVIC_INT_CTRL
   72 0000002C F04F 5180       LDR              R1, =NVIC_PENDSVSET
   73 00000030 6001            STR              R1, [R0]
   74 00000032         
   75 00000032 B662            CPSIE            I
   76 00000034         
   77 00000034         __unreachable
   78 00000034 E7FE            B                __unreachable
   79 00000036         
   80 00000036         
   81 00000036                 GLOBAL           port_context_switch
   82 00000036         port_context_switch
   83 00000036 4812            LDR              R0, =NVIC_INT_CTRL
   84 00000038 F04F 5180       LDR              R1, =NVIC_PENDSVSET
   85 0000003C 6001            STR              R1, [R0]
   86 0000003E 4770            BX               LR
   87 00000040         
   88 00000040         
   89 00000040                 GLOBAL           port_irq_context_switch
   90 00000040         port_irq_context_switch
   91 00000040 480F            LDR              R0, =NVIC_INT_CTRL
   92 00000042 F04F 5180       LDR              R1, =NVIC_PENDSVSET
   93 00000046 6001            STR              R1, [R0]
   94 00000048 4770            BX               LR
   95 0000004A         
   96 0000004A         
   97 0000004A                 GLOBAL           PendSV_Handler
   98 0000004A         PendSV_Handler
   99 0000004A B672            CPSID            I
  100 0000004C F3EF 8009       MRS              R0, PSP
  101 00000050 B128            CBZ              R0, PendSVHandler_nosave
  102 00000052         
  103 00000052 3820            SUBS             R0, R0, #0x20
  104 00000054 E880 0FF0       STM              R0, {R4 - R11}
  105 00000058         
  106 00000058 490A            LDR              R1, =k_curr_task
  107 0000005A 6809            LDR              R1, [R1]
  108 0000005C 6008            STR              R0, [R1]
  109 0000005E         



ARM Macro Assembler    Page 3 


  110 0000005E         PendSVHandler_nosave
  111 0000005E 4809            LDR              R0, =k_curr_task
  112 00000060 4909            LDR              R1, =k_next_task
  113 00000062 680A            LDR              R2, [R1]
  114 00000064 6002            STR              R2, [R0]
  115 00000066         
  116 00000066 6810            LDR              R0, [R2]
  117 00000068 E890 0FF0       LDM              R0, {R4 - R11}
  118 0000006C 3020            ADDS             R0, R0, #0x20
  119 0000006E F380 8809       MSR              PSP, R0
  120 00000072 F04E 0E04       ORR              LR, LR, #0x04
  121 00000076 B662            CPSIE            I
  122 00000078 4770            BX               LR
  123 0000007A BF00            NOP
  124 0000007C                 END
              E000ED22 
              E000ED04 
              00000000 
              00000000 
Command Line: --debug --xref --diag_suppress=9931 --cpu=Cortex-M3 --apcs=interw
ork --depend=..\..\output\port_s.d -o..\..\output\port_s.o -I.\RTE\TencentOS_ti
ny -I.\RTE\TencentOS_tiny\STM32F103ZE -I.\RTE\_USART -ID:\Keil_v5\Packs\Keil\ST
M32F1xx_DFP\2.3.0\Device\Include -ID:\Keil_v5\Packs\Tencent\TencentOS-tiny\1.0.
0\arch\arm\arm-v7m\common\include -ID:\Keil_v5\Packs\Tencent\TencentOS-tiny\1.0
.0\arch\arm\arm-v7m\cortex-m3\armcc -ID:\Keil_v5\Packs\Tencent\TencentOS-tiny\1
.0.0\kernel\core\include -ID:\Keil_v5\Packs\Tencent\TencentOS-tiny\1.0.0\kernel
\hal\include -ID:\Keil_v5\Packs\Tencent\TencentOS-tiny\1.0.0\kernel\pm\include 
--predefine="__MICROLIB SETA 1" --predefine="__UVISION_VERSION SETA 535" --pred
efine="_RTE_ SETA 1" --predefine="STM32F10X_HD SETA 1" --predefine="_RTE_ SETA 
1" --list=..\..\listing\port_s.lst D:\Keil_v5\Packs\Tencent\TencentOS-tiny\1.0.
0\arch\arm\arm-v7m\cortex-m3\armcc\port_s.S



ARM Macro Assembler    Page 1 Alphabetic symbol ordering
Relocatable symbols

.text 00000000

Symbol: .text
   Definitions
      At line 25 in file D:\Keil_v5\Packs\Tencent\TencentOS-tiny\1.0.0\arch\arm
\arm-v7m\cortex-m3\armcc\port_s.S
   Uses
      None
Comment: .text unused
PendSVHandler_nosave 0000005E

Symbol: PendSVHandler_nosave
   Definitions
      At line 110 in file D:\Keil_v5\Packs\Tencent\TencentOS-tiny\1.0.0\arch\ar
m\arm-v7m\cortex-m3\armcc\port_s.S
   Uses
      At line 101 in file D:\Keil_v5\Packs\Tencent\TencentOS-tiny\1.0.0\arch\ar
m\arm-v7m\cortex-m3\armcc\port_s.S
Comment: PendSVHandler_nosave used once
PendSV_Handler 0000004A

Symbol: PendSV_Handler
   Definitions
      At line 98 in file D:\Keil_v5\Packs\Tencent\TencentOS-tiny\1.0.0\arch\arm
\arm-v7m\cortex-m3\armcc\port_s.S
   Uses
      At line 13 in file D:\Keil_v5\Packs\Tencent\TencentOS-tiny\1.0.0\arch\arm
\arm-v7m\cortex-m3\armcc\port_s.S
      At line 97 in file D:\Keil_v5\Packs\Tencent\TencentOS-tiny\1.0.0\arch\arm
\arm-v7m\cortex-m3\armcc\port_s.S

__unreachable 00000034

Symbol: __unreachable
   Definitions
      At line 77 in file D:\Keil_v5\Packs\Tencent\TencentOS-tiny\1.0.0\arch\arm
\arm-v7m\cortex-m3\armcc\port_s.S
   Uses
      At line 78 in file D:\Keil_v5\Packs\Tencent\TencentOS-tiny\1.0.0\arch\arm
\arm-v7m\cortex-m3\armcc\port_s.S
Comment: __unreachable used once
port_clz 00000016

Symbol: port_clz
   Definitions
      At line 57 in file D:\Keil_v5\Packs\Tencent\TencentOS-tiny\1.0.0\arch\arm
\arm-v7m\cortex-m3\armcc\port_s.S
   Uses
      At line 11 in file D:\Keil_v5\Packs\Tencent\TencentOS-tiny\1.0.0\arch\arm
\arm-v7m\cortex-m3\armcc\port_s.S
      At line 56 in file D:\Keil_v5\Packs\Tencent\TencentOS-tiny\1.0.0\arch\arm
\arm-v7m\cortex-m3\armcc\port_s.S

port_context_switch 00000036

Symbol: port_context_switch
   Definitions
      At line 82 in file D:\Keil_v5\Packs\Tencent\TencentOS-tiny\1.0.0\arch\arm
\arm-v7m\cortex-m3\armcc\port_s.S



ARM Macro Assembler    Page 2 Alphabetic symbol ordering
Relocatable symbols

   Uses
      At line 8 in file D:\Keil_v5\Packs\Tencent\TencentOS-tiny\1.0.0\arch\arm\
arm-v7m\cortex-m3\armcc\port_s.S
      At line 81 in file D:\Keil_v5\Packs\Tencent\TencentOS-tiny\1.0.0\arch\arm
\arm-v7m\cortex-m3\armcc\port_s.S

port_cpsr_restore 00000010

Symbol: port_cpsr_restore
   Definitions
      At line 51 in file D:\Keil_v5\Packs\Tencent\TencentOS-tiny\1.0.0\arch\arm
\arm-v7m\cortex-m3\armcc\port_s.S
   Uses
      At line 5 in file D:\Keil_v5\Packs\Tencent\TencentOS-tiny\1.0.0\arch\arm\
arm-v7m\cortex-m3\armcc\port_s.S
      At line 50 in file D:\Keil_v5\Packs\Tencent\TencentOS-tiny\1.0.0\arch\arm
\arm-v7m\cortex-m3\armcc\port_s.S

port_cpsr_save 00000008

Symbol: port_cpsr_save
   Definitions
      At line 44 in file D:\Keil_v5\Packs\Tencent\TencentOS-tiny\1.0.0\arch\arm
\arm-v7m\cortex-m3\armcc\port_s.S
   Uses
      At line 4 in file D:\Keil_v5\Packs\Tencent\TencentOS-tiny\1.0.0\arch\arm\
arm-v7m\cortex-m3\armcc\port_s.S
      At line 43 in file D:\Keil_v5\Packs\Tencent\TencentOS-tiny\1.0.0\arch\arm
\arm-v7m\cortex-m3\armcc\port_s.S

port_int_disable 00000000

Symbol: port_int_disable
   Definitions
      At line 32 in file D:\Keil_v5\Packs\Tencent\TencentOS-tiny\1.0.0\arch\arm
\arm-v7m\cortex-m3\armcc\port_s.S
   Uses
      At line 1 in file D:\Keil_v5\Packs\Tencent\TencentOS-tiny\1.0.0\arch\arm\
arm-v7m\cortex-m3\armcc\port_s.S
      At line 31 in file D:\Keil_v5\Packs\Tencent\TencentOS-tiny\1.0.0\arch\arm
\arm-v7m\cortex-m3\armcc\port_s.S

port_int_enable 00000004

Symbol: port_int_enable
   Definitions
      At line 38 in file D:\Keil_v5\Packs\Tencent\TencentOS-tiny\1.0.0\arch\arm
\arm-v7m\cortex-m3\armcc\port_s.S
   Uses
      At line 2 in file D:\Keil_v5\Packs\Tencent\TencentOS-tiny\1.0.0\arch\arm\
arm-v7m\cortex-m3\armcc\port_s.S
      At line 37 in file D:\Keil_v5\Packs\Tencent\TencentOS-tiny\1.0.0\arch\arm
\arm-v7m\cortex-m3\armcc\port_s.S

port_irq_context_switch 00000040

Symbol: port_irq_context_switch
   Definitions
      At line 90 in file D:\Keil_v5\Packs\Tencent\TencentOS-tiny\1.0.0\arch\arm



ARM Macro Assembler    Page 3 Alphabetic symbol ordering
Relocatable symbols

\arm-v7m\cortex-m3\armcc\port_s.S
   Uses
      At line 9 in file D:\Keil_v5\Packs\Tencent\TencentOS-tiny\1.0.0\arch\arm\
arm-v7m\cortex-m3\armcc\port_s.S
      At line 89 in file D:\Keil_v5\Packs\Tencent\TencentOS-tiny\1.0.0\arch\arm
\arm-v7m\cortex-m3\armcc\port_s.S

port_sched_start 0000001C

Symbol: port_sched_start
   Definitions
      At line 63 in file D:\Keil_v5\Packs\Tencent\TencentOS-tiny\1.0.0\arch\arm
\arm-v7m\cortex-m3\armcc\port_s.S
   Uses
      At line 7 in file D:\Keil_v5\Packs\Tencent\TencentOS-tiny\1.0.0\arch\arm\
arm-v7m\cortex-m3\armcc\port_s.S
      At line 62 in file D:\Keil_v5\Packs\Tencent\TencentOS-tiny\1.0.0\arch\arm
\arm-v7m\cortex-m3\armcc\port_s.S

12 symbols



ARM Macro Assembler    Page 1 Alphabetic symbol ordering
Absolute symbols

NVIC_INT_CTRL E000ED04

Symbol: NVIC_INT_CTRL
   Definitions
      At line 19 in file D:\Keil_v5\Packs\Tencent\TencentOS-tiny\1.0.0\arch\arm
\arm-v7m\cortex-m3\armcc\port_s.S
   Uses
      At line 71 in file D:\Keil_v5\Packs\Tencent\TencentOS-tiny\1.0.0\arch\arm
\arm-v7m\cortex-m3\armcc\port_s.S
      At line 83 in file D:\Keil_v5\Packs\Tencent\TencentOS-tiny\1.0.0\arch\arm
\arm-v7m\cortex-m3\armcc\port_s.S
      At line 91 in file D:\Keil_v5\Packs\Tencent\TencentOS-tiny\1.0.0\arch\arm
\arm-v7m\cortex-m3\armcc\port_s.S

NVIC_PENDSVSET 10000000

Symbol: NVIC_PENDSVSET
   Definitions
      At line 22 in file D:\Keil_v5\Packs\Tencent\TencentOS-tiny\1.0.0\arch\arm
\arm-v7m\cortex-m3\armcc\port_s.S
   Uses
      At line 72 in file D:\Keil_v5\Packs\Tencent\TencentOS-tiny\1.0.0\arch\arm
\arm-v7m\cortex-m3\armcc\port_s.S
      At line 84 in file D:\Keil_v5\Packs\Tencent\TencentOS-tiny\1.0.0\arch\arm
\arm-v7m\cortex-m3\armcc\port_s.S
      At line 92 in file D:\Keil_v5\Packs\Tencent\TencentOS-tiny\1.0.0\arch\arm
\arm-v7m\cortex-m3\armcc\port_s.S

NVIC_PENDSV_PRI 000000FF

Symbol: NVIC_PENDSV_PRI
   Definitions
      At line 21 in file D:\Keil_v5\Packs\Tencent\TencentOS-tiny\1.0.0\arch\arm
\arm-v7m\cortex-m3\armcc\port_s.S
   Uses
      At line 65 in file D:\Keil_v5\Packs\Tencent\TencentOS-tiny\1.0.0\arch\arm
\arm-v7m\cortex-m3\armcc\port_s.S
Comment: NVIC_PENDSV_PRI used once
NVIC_SYSPRI14 E000ED22

Symbol: NVIC_SYSPRI14
   Definitions
      At line 20 in file D:\Keil_v5\Packs\Tencent\TencentOS-tiny\1.0.0\arch\arm
\arm-v7m\cortex-m3\armcc\port_s.S
   Uses
      At line 64 in file D:\Keil_v5\Packs\Tencent\TencentOS-tiny\1.0.0\arch\arm
\arm-v7m\cortex-m3\armcc\port_s.S
Comment: NVIC_SYSPRI14 used once
4 symbols



ARM Macro Assembler    Page 1 Alphabetic symbol ordering
External symbols

k_curr_task 00000000

Symbol: k_curr_task
   Definitions
      At line 15 in file D:\Keil_v5\Packs\Tencent\TencentOS-tiny\1.0.0\arch\arm
\arm-v7m\cortex-m3\armcc\port_s.S
   Uses
      At line 106 in file D:\Keil_v5\Packs\Tencent\TencentOS-tiny\1.0.0\arch\ar
m\arm-v7m\cortex-m3\armcc\port_s.S
      At line 111 in file D:\Keil_v5\Packs\Tencent\TencentOS-tiny\1.0.0\arch\ar
m\arm-v7m\cortex-m3\armcc\port_s.S

k_next_task 00000000

Symbol: k_next_task
   Definitions
      At line 16 in file D:\Keil_v5\Packs\Tencent\TencentOS-tiny\1.0.0\arch\arm
\arm-v7m\cortex-m3\armcc\port_s.S
   Uses
      At line 112 in file D:\Keil_v5\Packs\Tencent\TencentOS-tiny\1.0.0\arch\ar
m\arm-v7m\cortex-m3\armcc\port_s.S
Comment: k_next_task used once
2 symbols
354 symbols in table
